{
    "_format": "hh-sol-artifact-1",
    "contractName": "Counter",
    "sourceName": "contracts/Counter.sol",
    "abi": [
        {
            "anonymous": false,
            "inputs": [
                {
                    "indexed": false,
                    "internalType": "uint256",
                    "name": "oldCounter",
                    "type": "uint256"
                },
                {
                    "indexed": false,
                    "internalType": "uint256",
                    "name": "newCounter",
                    "type": "uint256"
                }
            ],
            "name": "CounterIncremented",
            "type": "event"
        },
        {
            "anonymous": false,
            "inputs": [
                {
                    "indexed": false,
                    "internalType": "uint8",
                    "name": "version",
                    "type": "uint8"
                }
            ],
            "name": "Initialized",
            "type": "event"
        },
        {
            "inputs": [],
            "name": "counter",
            "outputs": [
                {
                    "internalType": "uint256",
                    "name": "",
                    "type": "uint256"
                }
            ],
            "stateMutability": "view",
            "type": "function"
        },
        {
            "inputs": [],
            "name": "getCounter",
            "outputs": [
                {
                    "internalType": "uint256",
                    "name": "_counter",
                    "type": "uint256"
                }
            ],
            "stateMutability": "view",
            "type": "function"
        },
        {
            "inputs": [],
            "name": "increment",
            "outputs": [],
            "stateMutability": "nonpayable",
            "type": "function"
        },
        {
            "inputs": [
                {
                    "internalType": "uint256",
                    "name": "steps",
                    "type": "uint256"
                }
            ],
            "name": "incrementX",
            "outputs": [],
            "stateMutability": "nonpayable",
            "type": "function"
        },
        {
            "inputs": [
                {
                    "internalType": "uint256",
                    "name": "_initialCount",
                    "type": "uint256"
                }
            ],
            "name": "initialize",
            "outputs": [],
            "stateMutability": "nonpayable",
            "type": "function"
        },
        {
            "inputs": [],
            "name": "owner",
            "outputs": [
                {
                    "internalType": "address payable",
                    "name": "",
                    "type": "address"
                }
            ],
            "stateMutability": "view",
            "type": "function"
        }
    ],
    "bytecode": "0x608060405234801561001057600080fd5b5061041d806100206000396000f3fe608060405234801561001057600080fd5b50600436106100625760003560e01c806361bc221a146100675780638ada066e146100835780638da5cb5b1461008b578063d09de08a146100b6578063e373f971146100c0578063fe4b84df146100d3575b600080fd5b61007060015481565b6040519081526020015b60405180910390f35b600154610070565b60025461009e906001600160a01b031681565b6040516001600160a01b03909116815260200161007a565b6100be6100e6565b005b6100be6100ce3660046103ab565b610193565b6100be6100e13660046103ab565b61028e565b6002546001600160a01b0316331461013c5760405162461bcd60e51b81526020600482015260146024820152732cb7ba9030b932b713ba103a34329037bbb732b960611b60448201526064015b60405180910390fd5b600180549080600061014e82856103c3565b90915550506001546040805183815260208101929092527ff6ef72180c46cadbda80997bfa03fc39b76911c9bc988da15e4a47d55d687a31910160405180910390a150565b6002546001600160a01b031633146101e45760405162461bcd60e51b81526020600482015260146024820152732cb7ba9030b932b713ba103a34329037bbb732b960611b6044820152606401610133565b600181116102345760405162461bcd60e51b815260206004820152601e60248201527f53746570732073686f756c642062652067726561746572207468616e203100006044820152606401610133565b60018054908290600061024783856103c3565b90915550506001546040805183815260208101929092527ff6ef72180c46cadbda80997bfa03fc39b76911c9bc988da15e4a47d55d687a3191015b60405180910390a15050565b600054610100900460ff16158080156102ae5750600054600160ff909116105b806102c85750303b1580156102c8575060005460ff166001145b61032b5760405162461bcd60e51b815260206004820152602e60248201527f496e697469616c697a61626c653a20636f6e747261637420697320616c72656160448201526d191e481a5b9a5d1a585b1a5e995960921b6064820152608401610133565b6000805460ff19166001179055801561034e576000805461ff0019166101001790555b6001829055600280546001600160a01b0319163317905580156103a7576000805461ff0019169055604051600181527f7f26b83ff96e1f2b6a682f133852f6798a09c465da95921460cefb384740249890602001610282565b5050565b6000602082840312156103bc578081fd5b5035919050565b600082198211156103e257634e487b7160e01b81526011600452602481fd5b50019056fea26469706673582212209fde6b5e26006d669ed8e774e2231ca551c1b0ed57a38006af6a8452c000ddae64736f6c63430008020033",
    "linkReferences": {},
    "deployedLinkReferences": {}
}